{
  "_format": "hh-sol-artifact-1",
  "contractName": "BinZSubscription",
  "sourceName": "contracts/BinZSubscription.sol",
  "abi": [
    {
      "inputs": [
        {
          "internalType": "address",
          "name": "_klimaToken",
          "type": "address"
        },
        {
          "internalType": "address",
          "name": "_toucan",
          "type": "address"
        }
      ],
      "stateMutability": "nonpayable",
      "type": "constructor"
    },
    {
      "inputs": [],
      "name": "admin",
      "outputs": [
        {
          "internalType": "address",
          "name": "",
          "type": "address"
        }
      ],
      "stateMutability": "view",
      "type": "function"
    },
    {
      "inputs": [
        {
          "internalType": "address",
          "name": "user",
          "type": "address"
        }
      ],
      "name": "getRecyclingRecords",
      "outputs": [
        {
          "internalType": "string[]",
          "name": "",
          "type": "string[]"
        }
      ],
      "stateMutability": "view",
      "type": "function"
    },
    {
      "inputs": [],
      "name": "klimaToken",
      "outputs": [
        {
          "internalType": "contract IERC20",
          "name": "",
          "type": "address"
        }
      ],
      "stateMutability": "view",
      "type": "function"
    },
    {
      "inputs": [
        {
          "internalType": "address",
          "name": "",
          "type": "address"
        },
        {
          "internalType": "uint256",
          "name": "",
          "type": "uint256"
        }
      ],
      "name": "recyclingRecords",
      "outputs": [
        {
          "internalType": "string",
          "name": "",
          "type": "string"
        }
      ],
      "stateMutability": "view",
      "type": "function"
    },
    {
      "inputs": [
        {
          "internalType": "address",
          "name": "user",
          "type": "address"
        },
        {
          "internalType": "uint256",
          "name": "amountPlastic",
          "type": "uint256"
        },
        {
          "internalType": "string",
          "name": "ipfsHash",
          "type": "string"
        }
      ],
      "name": "rewardForRecycling",
      "outputs": [],
      "stateMutability": "nonpayable",
      "type": "function"
    },
    {
      "inputs": [],
      "name": "subscribe",
      "outputs": [],
      "stateMutability": "nonpayable",
      "type": "function"
    },
    {
      "inputs": [
        {
          "internalType": "address",
          "name": "",
          "type": "address"
        }
      ],
      "name": "subscriptions",
      "outputs": [
        {
          "internalType": "uint256",
          "name": "",
          "type": "uint256"
        }
      ],
      "stateMutability": "view",
      "type": "function"
    },
    {
      "inputs": [],
      "name": "toucan",
      "outputs": [
        {
          "internalType": "contract Toucan",
          "name": "",
          "type": "address"
        }
      ],
      "stateMutability": "view",
      "type": "function"
    }
  ],
  "bytecode": "0x60806040523480156200001157600080fd5b506040516200142e3803806200142e83398181016040528101906200003791906200016b565b816000806101000a81548173ffffffffffffffffffffffffffffffffffffffff021916908373ffffffffffffffffffffffffffffffffffffffff16021790555080600160006101000a81548173ffffffffffffffffffffffffffffffffffffffff021916908373ffffffffffffffffffffffffffffffffffffffff16021790555033600260006101000a81548173ffffffffffffffffffffffffffffffffffffffff021916908373ffffffffffffffffffffffffffffffffffffffff1602179055505050620001b2565b600080fd5b600073ffffffffffffffffffffffffffffffffffffffff82169050919050565b6000620001338262000106565b9050919050565b620001458162000126565b81146200015157600080fd5b50565b60008151905062000165816200013a565b92915050565b6000806040838503121562000185576200018462000101565b5b6000620001958582860162000154565b9250506020620001a88582860162000154565b9150509250929050565b61126c80620001c26000396000f3fe608060405234801561001057600080fd5b50600436106100885760003560e01c8063b15e05dd1161005b578063b15e05dd14610101578063b7c08ac114610131578063f046395a1461014f578063f851a4401461017f57610088565b80630b7dd51c1461008d57806365234c92146100ab578063790df4b8146100db5780638f449a05146100f7575b600080fd5b61009561019d565b6040516100a29190610797565b60405180910390f35b6100c560048036038101906100c09190610804565b6101c3565b6040516100d29190610983565b60405180910390f35b6100f560048036038101906100f09190610b10565b6102db565b005b6100ff6104bd565b005b61011b60048036038101906101169190610b7f565b6105fd565b6040516101289190610c09565b60405180910390f35b6101396106b6565b6040516101469190610c4c565b60405180910390f35b61016960048036038101906101649190610804565b6106da565b6040516101769190610c76565b60405180910390f35b6101876106f2565b6040516101949190610ca0565b60405180910390f35b600160009054906101000a900473ffffffffffffffffffffffffffffffffffffffff1681565b6060600460008373ffffffffffffffffffffffffffffffffffffffff1673ffffffffffffffffffffffffffffffffffffffff168152602001908152602001600020805480602002602001604051908101604052809291908181526020016000905b828210156102d057838290600052602060002001805461024390610cea565b80601f016020809104026020016040519081016040528092919081815260200182805461026f90610cea565b80156102bc5780601f10610291576101008083540402835291602001916102bc565b820191906000526020600020905b81548152906001019060200180831161029f57829003601f168201915b505050505081526020019060010190610224565b505050509050919050565b600260009054906101000a900473ffffffffffffffffffffffffffffffffffffffff1673ffffffffffffffffffffffffffffffffffffffff163373ffffffffffffffffffffffffffffffffffffffff161461036b576040517f08c379a000000000000000000000000000000000000000000000000000000000815260040161036290610d67565b60405180910390fd5b600a8210156103af576040517f08c379a00000000000000000000000000000000000000000000000000000000081526004016103a690610dd3565b60405180910390fd5b600160009054906101000a900473ffffffffffffffffffffffffffffffffffffffff1673ffffffffffffffffffffffffffffffffffffffff16639c144ef584670de0b6b3a76400006040518363ffffffff1660e01b8152600401610414929190610e2e565b600060405180830381600087803b15801561042e57600080fd5b505af1158015610442573d6000803e3d6000fd5b50505050600460008473ffffffffffffffffffffffffffffffffffffffff1673ffffffffffffffffffffffffffffffffffffffff168152602001908152602001600020819080600181540180825580915050600190039060005260206000200160009091909190915090816104b79190610ff9565b50505050565b60008054906101000a900473ffffffffffffffffffffffffffffffffffffffff1673ffffffffffffffffffffffffffffffffffffffff166323b872dd3330670de0b6b3a76400006040518463ffffffff1660e01b8152600401610522939291906110cb565b6020604051808303816000875af1158015610541573d6000803e3d6000fd5b505050506040513d601f19601f82011682018060405250810190610565919061113a565b6105a4576040517f08c379a000000000000000000000000000000000000000000000000000000000815260040161059b906111b3565b60405180910390fd5b6001600360003373ffffffffffffffffffffffffffffffffffffffff1673ffffffffffffffffffffffffffffffffffffffff16815260200190815260200160002060008282546105f49190611202565b92505081905550565b6004602052816000526040600020818154811061061957600080fd5b9060005260206000200160009150915050805461063590610cea565b80601f016020809104026020016040519081016040528092919081815260200182805461066190610cea565b80156106ae5780601f10610683576101008083540402835291602001916106ae565b820191906000526020600020905b81548152906001019060200180831161069157829003601f168201915b505050505081565b60008054906101000a900473ffffffffffffffffffffffffffffffffffffffff1681565b60036020528060005260406000206000915090505481565b600260009054906101000a900473ffffffffffffffffffffffffffffffffffffffff1681565b600073ffffffffffffffffffffffffffffffffffffffff82169050919050565b6000819050919050565b600061075d61075861075384610718565b610738565b610718565b9050919050565b600061076f82610742565b9050919050565b600061078182610764565b9050919050565b61079181610776565b82525050565b60006020820190506107ac6000830184610788565b92915050565b6000604051905090565b600080fd5b600080fd5b60006107d182610718565b9050919050565b6107e1816107c6565b81146107ec57600080fd5b50565b6000813590506107fe816107d8565b92915050565b60006020828403121561081a576108196107bc565b5b6000610828848285016107ef565b91505092915050565b600081519050919050565b600082825260208201905092915050565b6000819050602082019050919050565b600081519050919050565b600082825260208201905092915050565b60005b8381101561089757808201518184015260208101905061087c565b60008484015250505050565b6000601f19601f8301169050919050565b60006108bf8261085d565b6108c98185610868565b93506108d9818560208601610879565b6108e2816108a3565b840191505092915050565b60006108f983836108b4565b905092915050565b6000602082019050919050565b600061091982610831565b610923818561083c565b9350836020820285016109358561084d565b8060005b85811015610971578484038952815161095285826108ed565b945061095d83610901565b925060208a01995050600181019050610939565b50829750879550505050505092915050565b6000602082019050818103600083015261099d818461090e565b905092915050565b6000819050919050565b6109b8816109a5565b81146109c357600080fd5b50565b6000813590506109d5816109af565b92915050565b600080fd5b600080fd5b7f4e487b7100000000000000000000000000000000000000000000000000000000600052604160045260246000fd5b610a1d826108a3565b810181811067ffffffffffffffff82111715610a3c57610a3b6109e5565b5b80604052505050565b6000610a4f6107b2565b9050610a5b8282610a14565b919050565b600067ffffffffffffffff821115610a7b57610a7a6109e5565b5b610a84826108a3565b9050602081019050919050565b82818337600083830152505050565b6000610ab3610aae84610a60565b610a45565b905082815260208101848484011115610acf57610ace6109e0565b5b610ada848285610a91565b509392505050565b600082601f830112610af757610af66109db565b5b8135610b07848260208601610aa0565b91505092915050565b600080600060608486031215610b2957610b286107bc565b5b6000610b37868287016107ef565b9350506020610b48868287016109c6565b925050604084013567ffffffffffffffff811115610b6957610b686107c1565b5b610b7586828701610ae2565b9150509250925092565b60008060408385031215610b9657610b956107bc565b5b6000610ba4858286016107ef565b9250506020610bb5858286016109c6565b9150509250929050565b600082825260208201905092915050565b6000610bdb8261085d565b610be58185610bbf565b9350610bf5818560208601610879565b610bfe816108a3565b840191505092915050565b60006020820190508181036000830152610c238184610bd0565b905092915050565b6000610c3682610764565b9050919050565b610c4681610c2b565b82525050565b6000602082019050610c616000830184610c3d565b92915050565b610c70816109a5565b82525050565b6000602082019050610c8b6000830184610c67565b92915050565b610c9a816107c6565b82525050565b6000602082019050610cb56000830184610c91565b92915050565b7f4e487b7100000000000000000000000000000000000000000000000000000000600052602260045260246000fd5b60006002820490506001821680610d0257607f821691505b602082108103610d1557610d14610cbb565b5b50919050565b7f4f6e6c792061646d696e2063616e207265776172640000000000000000000000600082015250565b6000610d51601583610bbf565b9150610d5c82610d1b565b602082019050919050565b60006020820190508181036000830152610d8081610d44565b9050919050565b7f4e6f7420656e6f75676820706c617374696320666f7220726577617264000000600082015250565b6000610dbd601d83610bbf565b9150610dc882610d87565b602082019050919050565b60006020820190508181036000830152610dec81610db0565b9050919050565b6000819050919050565b6000610e18610e13610e0e84610df3565b610738565b6109a5565b9050919050565b610e2881610dfd565b82525050565b6000604082019050610e436000830185610c91565b610e506020830184610e1f565b9392505050565b60008190508160005260206000209050919050565b60006020601f8301049050919050565b600082821b905092915050565b600060088302610eb97fffffffffffffffffffffffffffffffffffffffffffffffffffffffffffffffff82610e7c565b610ec38683610e7c565b95508019841693508086168417925050509392505050565b6000610ef6610ef1610eec846109a5565b610738565b6109a5565b9050919050565b6000819050919050565b610f1083610edb565b610f24610f1c82610efd565b848454610e89565b825550505050565b600090565b610f39610f2c565b610f44818484610f07565b505050565b5b81811015610f6857610f5d600082610f31565b600181019050610f4a565b5050565b601f821115610fad57610f7e81610e57565b610f8784610e6c565b81016020851015610f96578190505b610faa610fa285610e6c565b830182610f49565b50505b505050565b600082821c905092915050565b6000610fd060001984600802610fb2565b1980831691505092915050565b6000610fe98383610fbf565b9150826002028217905092915050565b6110028261085d565b67ffffffffffffffff81111561101b5761101a6109e5565b5b6110258254610cea565b611030828285610f6c565b600060209050601f8311600181146110635760008415611051578287015190505b61105b8582610fdd565b8655506110c3565b601f19841661107186610e57565b60005b8281101561109957848901518255600182019150602085019450602081019050611074565b868310156110b657848901516110b2601f891682610fbf565b8355505b6001600288020188555050505b505050505050565b60006060820190506110e06000830186610c91565b6110ed6020830185610c91565b6110fa6040830184610e1f565b949350505050565b60008115159050919050565b61111781611102565b811461112257600080fd5b50565b6000815190506111348161110e565b92915050565b6000602082840312156111505761114f6107bc565b5b600061115e84828501611125565b91505092915050565b7f537562736372697074696f6e207061796d656e74206661696c65640000000000600082015250565b600061119d601b83610bbf565b91506111a882611167565b602082019050919050565b600060208201905081810360008301526111cc81611190565b9050919050565b7f4e487b7100000000000000000000000000000000000000000000000000000000600052601160045260246000fd5b600061120d826109a5565b9150611218836109a5565b92508282019050808211156112305761122f6111d3565b5b9291505056fea2646970667358221220ce04a7f2912d112fd3cdb2f7b48f1a51f628fab9979b140e1bfe056c3a5bdebc64736f6c63430008140033",
  "linkReferences": {},
  "deployedLinkReferences": {}
}